{
  "abi": [
    {
      "inputs": [],
      "name": "IndexOutOfRange",
      "type": "error"
    },
    {
      "inputs": [
        {
          "internalType": "uint256[]",
          "name": "_array",
          "type": "uint256[]"
        },
        {
          "internalType": "uint256",
          "name": "_index",
          "type": "uint256"
        }
      ],
      "name": "deleteAt",
      "outputs": [
        {
          "internalType": "uint256[]",
          "name": "",
          "type": "uint256[]"
        }
      ],
      "stateMutability": "nonpayable",
      "type": "function"
    }
  ],
  "bytecode": {
    "object": "0x608060405234801561001057600080fd5b5061035f806100206000396000f3fe608060405234801561001057600080fd5b506004361061002b5760003560e01c806381a2287f14610030575b600080fd5b61004361003e3660046101d4565b610059565b6040516100509190610298565b60405180910390f35b6060825182111561007d57604051631390f2a160e01b815260040160405180910390fd5b825161009090600090602086019061015e565b506000600184516100a191906102dc565b815481106100b1576100b16102fd565b9060005260206000200154600083815481106100cf576100cf6102fd565b906000526020600020018190555060008054806100ee576100ee610313565b60019003818190600052602060002001600090559055600080548060200260200160405190810160405280929190818152602001828054801561015057602002820191906000526020600020905b81548152602001906001019080831161013c575b505050505090505b92915050565b828054828255906000526020600020908101928215610199579160200282015b8281111561019957825182559160200191906001019061017e565b506101a59291506101a9565b5090565b5b808211156101a557600081556001016101aa565b634e487b7160e01b600052604160045260246000fd5b600080604083850312156101e757600080fd5b823567ffffffffffffffff808211156101ff57600080fd5b818501915085601f83011261021357600080fd5b8135602082821115610227576102276101be565b8160051b604051601f19603f8301168101818110868211171561024c5761024c6101be565b60405292835281830193508481018201928984111561026a57600080fd5b948201945b838610156102885785358552948201949382019361026f565b9997909101359750505050505050565b6020808252825182820181905260009190848201906040850190845b818110156102d0578351835292840192918401916001016102b4565b50909695505050505050565b8181038181111561015857634e487b7160e01b600052601160045260246000fd5b634e487b7160e01b600052603260045260246000fd5b634e487b7160e01b600052603160045260246000fdfea2646970667358221220bcf7dc049eb98312a28e0f7e10c589b0e13930a5d3fdaa2809bf7dbb73a0c81f64736f6c63430008110033",
    "linkReferences": {}
  },
  "methodIdentifiers": {
    "deleteAt(uint256[],uint256)": "81a2287f"
  },
  "id": 0
}