{
  "abi": [
    {
      "inputs": [],
      "name": "solution",
      "outputs": [
        {
          "internalType": "uint8",
          "name": "_solution",
          "type": "uint8"
        }
      ],
      "stateMutability": "payable",
      "type": "function"
    }
  ],
  "bytecode": {
    "object": "0x6080604052348015600f57600080fd5b5060808061001e6000396000f3fe608060405260043610601c5760003560e01c80634fb60251146021575b600080fd5b6027603d565b60405160ff909116815260200160405180910390f35b6000602a60405260206040f3fea2646970667358221220501d30578a27a0c5d7fb9315240fb45de16a669b7301cd9002de7a50d97a494a64736f6c63430008130033",
    "linkReferences": {}
  },
  "methodIdentifiers": {
    "solution()": "4fb60251"
  },
  "id": 0
}